{"contracts/MockDiamond.sol":{"MockDiamond":{"abi":[{"inputs":[],"stateMutability":"nonpayable","type":"constructor"},{"inputs":[{"internalType":"address","name":"owner","type":"address"}],"name":"OwnableInvalidOwner","type":"error"},{"inputs":[{"internalType":"address","name":"account","type":"address"}],"name":"OwnableUnauthorizedAccount","type":"error"},{"anonymous":false,"inputs":[{"indexed":true,"internalType":"address","name":"previousOwner","type":"address"},{"indexed":true,"internalType":"address","name":"newOwner","type":"address"}],"name":"OwnershipTransferred","type":"event"},{"anonymous":false,"inputs":[{"indexed":true,"internalType":"uint256","name":"tokenId","type":"uint256"},{"indexed":true,"internalType":"address","name":"owner","type":"address"}],"name":"PositionClosed","type":"event"},{"anonymous":false,"inputs":[{"indexed":true,"internalType":"uint256","name":"tokenId","type":"uint256"},{"indexed":true,"internalType":"address","name":"owner","type":"address"},{"indexed":false,"internalType":"address","name":"collateralToken","type":"address"},{"indexed":false,"internalType":"uint256","name":"collateralAmount","type":"uint256"}],"name":"PositionOpened","type":"event"},{"inputs":[],"name":"clearAllPositions","outputs":[],"stateMutability":"nonpayable","type":"function"},{"inputs":[{"internalType":"address","name":"user","type":"address"}],"name":"clearUserPositions","outputs":[],"stateMutability":"nonpayable","type":"function"},{"inputs":[{"internalType":"address","name":"tokenIn","type":"address"},{"internalType":"uint256","name":"amountIn","type":"uint256"},{"internalType":"address","name":"tokenOut","type":"address"},{"internalType":"uint256","name":"minAmountOut","type":"uint256"},{"internalType":"address","name":"swapTarget","type":"address"},{"internalType":"bytes","name":"swapData","type":"bytes"}],"name":"closeOrRemovePositionFlashLoanV2","outputs":[],"stateMutability":"nonpayable","type":"function"},{"inputs":[],"name":"getNextPositionId","outputs":[{"internalType":"uint32","name":"","type":"uint32"}],"stateMutability":"view","type":"function"},{"inputs":[{"internalType":"uint256","name":"tokenId","type":"uint256"}],"name":"getPosition","outputs":[{"internalType":"uint256","name":"collateralAmount","type":"uint256"},{"internalType":"uint256","name":"debtAmount","type":"uint256"}],"stateMutability":"view","type":"function"},{"inputs":[{"internalType":"uint256","name":"tokenId","type":"uint256"}],"name":"getPositionDebtRatio","outputs":[{"internalType":"uint256","name":"","type":"uint256"}],"stateMutability":"view","type":"function"},{"inputs":[{"components":[{"internalType":"address","name":"tokenIn","type":"address"},{"internalType":"uint256","name":"amountIn","type":"uint256"},{"internalType":"address","name":"tokenOut","type":"address"},{"internalType":"bytes","name":"swapData","type":"bytes"}],"internalType":"struct MockDiamond.SwapParams","name":"swapParams","type":"tuple"},{"internalType":"address","name":"pool","type":"address"},{"internalType":"uint256","name":"positionId","type":"uint256"},{"internalType":"uint256","name":"amount","type":"uint256"},{"internalType":"bytes","name":"data","type":"bytes"}],"name":"openOrAddPositionFlashLoanV2","outputs":[],"stateMutability":"payable","type":"function"},{"inputs":[],"name":"owner","outputs":[{"internalType":"address","name":"","type":"address"}],"stateMutability":"view","type":"function"},{"inputs":[{"internalType":"uint256","name":"","type":"uint256"}],"name":"positionCollateralAmounts","outputs":[{"internalType":"uint256","name":"","type":"uint256"}],"stateMutability":"view","type":"function"},{"inputs":[{"internalType":"uint256","name":"","type":"uint256"}],"name":"positionCollateralTokens","outputs":[{"internalType":"address","name":"","type":"address"}],"stateMutability":"view","type":"function"},{"inputs":[{"internalType":"uint256","name":"","type":"uint256"}],"name":"positionDebtAmounts","outputs":[{"internalType":"uint256","name":"","type":"uint256"}],"stateMutability":"view","type":"function"},{"inputs":[{"internalType":"uint256","name":"","type":"uint256"}],"name":"positionOwners","outputs":[{"internalType":"address","name":"","type":"address"}],"stateMutability":"view","type":"function"},{"inputs":[],"name":"renounceOwnership","outputs":[],"stateMutability":"nonpayable","type":"function"},{"inputs":[],"name":"testFunction","outputs":[{"internalType":"string","name":"","type":"string"}],"stateMutability":"pure","type":"function"},{"inputs":[{"internalType":"address","name":"newOwner","type":"address"}],"name":"transferOwnership","outputs":[],"stateMutability":"nonpayable","type":"function"}],"evm":{"bytecode":{"linkReferences":{},"object":"60806040526001805534801561001457600080fd5b50338061003b57604051631e4fbdf760e01b81526000600482015260240160405180910390fd5b6100448161004a565b5061009a565b600080546001600160a01b038381166001600160a01b0319831681178455604051919092169283917f8be0079c531659141344cd1fd0a4f28419497f9722a3daafe3b4186f6b6457e09190a35050565b61092c806100a96000396000f3fe6080604052600436106100e85760003560e01c80638868af741161008a578063eb02c30111610059578063eb02c301146102a9578063f00ba564146102f8578063f03c71f714610325578063f2fde38b1461035b57600080fd5b80638868af74146102175780638da5cb5b1461022c578063a1b7e04f1461024a578063e16b4a9b1461025d57600080fd5b806362474ea1116100c657806362474ea114610174578063715018a6146101c25780638543795c146101d7578063861b4cfe146101f757600080fd5b8063067f4ddd146100ed578063094b5ccd146101175780632fc027d014610139575b600080fd5b3480156100f957600080fd5b5060015460405163ffffffff90911681526020015b60405180910390f35b34801561012357600080fd5b5061013761013236600461069c565b61037b565b005b34801561014557600080fd5b506101666101543660046106be565b60046020526000908152604090205481565b60405190815260200161010e565b34801561018057600080fd5b506101aa61018f3660046106be565b6002602052600090815260409020546001600160a01b031681565b6040516001600160a01b03909116815260200161010e565b3480156101ce57600080fd5b506101376103bc565b3480156101e357600080fd5b506101376101f2366004610720565b6103d0565b34801561020357600080fd5b506101666102123660046106be565b610407565b34801561022357600080fd5b5061013761045b565b34801561023857600080fd5b506000546001600160a01b03166101aa565b6101376102583660046107a9565b610496565b34801561026957600080fd5b50604080518082018252601781527f4d6f636b4469616d6f6e6420697320776f726b696e67210000000000000000006020820152905161010e9190610840565b3480156102b557600080fd5b506102e36102c43660046106be565b6000908152600460209081526040808320546005909252909120549091565b6040805192835260208301919091520161010e565b34801561030457600080fd5b506101666103133660046106be565b60056020526000908152604090205481565b34801561033157600080fd5b506101aa6103403660046106be565b6003602052600090815260409020546001600160a01b031681565b34801561036757600080fd5b5061013761037636600461069c565b6105c0565b610383610603565b6040516001600160a01b038216906000907fcefaf961c5013063cf501ffd9f9382e9b9c4b15741ad032fe93d7e9c7c733b22908290a350565b6103c4610603565b6103ce6000610630565b565b60405133906001907fcefaf961c5013063cf501ffd9f9382e9b9c4b15741ad032fe93d7e9c7c733b2290600090a350505050505050565b600081815260046020526040812054810361042457506000919050565b60008281526004602090815260408083205460059092529091205461044b906127106108a4565b61045591906108bb565b92915050565b610463610603565b6001805560405133906000907fcefaf961c5013063cf501ffd9f9382e9b9c4b15741ad032fe93d7e9c7c733b22908290a3565b60c8602082106104af576104ac828401846106be565b90505b60018054600091826104c0836108dd565b90915550600081815260026020908152604090912080546001600160a01b031916331790559091506104f49089018961069c565b600082815260036020908152604080832080546001600160a01b0319166001600160a01b0395909516949094179093556004815291902090890135908190556064906105419084906108a4565b61054b91906108bb565b600082815260056020908152604090912091909155339082907f9931fc1a74664316f768453232cd4f17f63c060ff3c43c99e92c83814879817a90610592908c018c61069c565b604080516001600160a01b0390921682526020808e0135908301520160405180910390a35050505050505050565b6105c8610603565b6001600160a01b0381166105f757604051631e4fbdf760e01b8152600060048201526024015b60405180910390fd5b61060081610630565b50565b6000546001600160a01b031633146103ce5760405163118cdaa760e01b81523360048201526024016105ee565b600080546001600160a01b038381166001600160a01b0319831681178455604051919092169283917f8be0079c531659141344cd1fd0a4f28419497f9722a3daafe3b4186f6b6457e09190a35050565b80356001600160a01b038116811461069757600080fd5b919050565b6000602082840312156106ae57600080fd5b6106b782610680565b9392505050565b6000602082840312156106d057600080fd5b5035919050565b60008083601f8401126106e957600080fd5b50813567ffffffffffffffff81111561070157600080fd5b60208301915083602082850101111561071957600080fd5b9250929050565b600080600080600080600060c0888a03121561073b57600080fd5b61074488610680565b96506020880135955061075960408901610680565b94506060880135935061076e60808901610680565b925060a088013567ffffffffffffffff81111561078a57600080fd5b6107968a828b016106d7565b989b979a50959850939692959293505050565b60008060008060008060a087890312156107c257600080fd5b863567ffffffffffffffff808211156107da57600080fd5b908801906080828b0312156107ee57600080fd5b8197506107fd60208a01610680565b96506040890135955060608901359450608089013591508082111561082157600080fd5b5061082e89828a016106d7565b979a9699509497509295939492505050565b600060208083528351808285015260005b8181101561086d57858101830151858201604001528201610851565b506000604082860101526040601f19601f8301168501019250505092915050565b634e487b7160e01b600052601160045260246000fd5b80820281158282048414176104555761045561088e565b6000826108d857634e487b7160e01b600052601260045260246000fd5b500490565b6000600182016108ef576108ef61088e565b506001019056fea2646970667358221220951e74e0a268a62843bf091f1f7d6d2537f9a18ac7bdcec22cfbe0155ad8a2f864736f6c63430008140033","opcodes":"PUSH1 0x80 PUSH1 0x40 MSTORE PUSH1 0x1 DUP1 SSTORE CALLVALUE DUP1 ISZERO PUSH2 0x14 JUMPI PUSH1 0x0 DUP1 REVERT JUMPDEST POP CALLER DUP1 PUSH2 0x3B JUMPI PUSH1 0x40 MLOAD PUSH4 0x1E4FBDF7 PUSH1 0xE0 SHL DUP2 MSTORE PUSH1 0x0 PUSH1 0x4 DUP3 ADD MSTORE PUSH1 0x24 ADD PUSH1 0x40 MLOAD DUP1 SWAP2 SUB SWAP1 REVERT JUMPDEST PUSH2 0x44 DUP2 PUSH2 0x4A JUMP JUMPDEST POP PUSH2 0x9A JUMP JUMPDEST PUSH1 0x0 DUP1 SLOAD PUSH1 0x1 PUSH1 0x1 PUSH1 0xA0 SHL SUB DUP4 DUP2 AND PUSH1 0x1 PUSH1 0x1 PUSH1 0xA0 SHL SUB NOT DUP4 AND DUP2 OR DUP5 SSTORE PUSH1 0x40 MLOAD SWAP2 SWAP1 SWAP3 AND SWAP3 DUP4 SWAP2 PUSH32 0x8BE0079C531659141344CD1FD0A4F28419497F9722A3DAAFE3B4186F6B6457E0 SWAP2 SWAP1 LOG3 POP POP JUMP JUMPDEST PUSH2 0x92C DUP1 PUSH2 0xA9 PUSH1 0x0 CODECOPY PUSH1 0x0 RETURN INVALID PUSH1 0x80 PUSH1 0x40 MSTORE PUSH1 0x4 CALLDATASIZE LT PUSH2 0xE8 JUMPI PUSH1 0x0 CALLDATALOAD PUSH1 0xE0 SHR DUP1 PUSH4 0x8868AF74 GT PUSH2 0x8A JUMPI DUP1 PUSH4 0xEB02C301 GT PUSH2 0x59 JUMPI DUP1 PUSH4 0xEB02C301 EQ PUSH2 0x2A9 JUMPI DUP1 PUSH4 0xF00BA564 EQ PUSH2 0x2F8 JUMPI DUP1 PUSH4 0xF03C71F7 EQ PUSH2 0x325 JUMPI DUP1 PUSH4 0xF2FDE38B EQ PUSH2 0x35B JUMPI PUSH1 0x0 DUP1 REVERT JUMPDEST DUP1 PUSH4 0x8868AF74 EQ PUSH2 0x217 JUMPI DUP1 PUSH4 0x8DA5CB5B EQ PUSH2 0x22C JUMPI DUP1 PUSH4 0xA1B7E04F EQ PUSH2 0x24A JUMPI DUP1 PUSH4 0xE16B4A9B EQ PUSH2 0x25D JUMPI PUSH1 0x0 DUP1 REVERT JUMPDEST DUP1 PUSH4 0x62474EA1 GT PUSH2 0xC6 JUMPI DUP1 PUSH4 0x62474EA1 EQ PUSH2 0x174 JUMPI DUP1 PUSH4 0x715018A6 EQ PUSH2 0x1C2 JUMPI DUP1 PUSH4 0x8543795C EQ PUSH2 0x1D7 JUMPI DUP1 PUSH4 0x861B4CFE EQ PUSH2 0x1F7 JUMPI PUSH1 0x0 DUP1 REVERT JUMPDEST DUP1 PUSH4 0x67F4DDD EQ PUSH2 0xED JUMPI DUP1 PUSH4 0x94B5CCD EQ PUSH2 0x117 JUMPI DUP1 PUSH4 0x2FC027D0 EQ PUSH2 0x139 JUMPI JUMPDEST PUSH1 0x0 DUP1 REVERT JUMPDEST CALLVALUE DUP1 ISZERO PUSH2 0xF9 JUMPI PUSH1 0x0 DUP1 REVERT JUMPDEST POP PUSH1 0x1 SLOAD PUSH1 0x40 MLOAD PUSH4 0xFFFFFFFF SWAP1 SWAP2 AND DUP2 MSTORE PUSH1 0x20 ADD JUMPDEST PUSH1 0x40 MLOAD DUP1 SWAP2 SUB SWAP1 RETURN JUMPDEST CALLVALUE DUP1 ISZERO PUSH2 0x123 JUMPI PUSH1 0x0 DUP1 REVERT JUMPDEST POP PUSH2 0x137 PUSH2 0x132 CALLDATASIZE PUSH1 0x4 PUSH2 0x69C JUMP JUMPDEST PUSH2 0x37B JUMP JUMPDEST STOP JUMPDEST CALLVALUE DUP1 ISZERO PUSH2 0x145 JUMPI PUSH1 0x0 DUP1 REVERT JUMPDEST POP PUSH2 0x166 PUSH2 0x154 CALLDATASIZE PUSH1 0x4 PUSH2 0x6BE JUMP JUMPDEST PUSH1 0x4 PUSH1 0x20 MSTORE PUSH1 0x0 SWAP1 DUP2 MSTORE PUSH1 0x40 SWAP1 KECCAK256 SLOAD DUP2 JUMP JUMPDEST PUSH1 0x40 MLOAD SWAP1 DUP2 MSTORE PUSH1 0x20 ADD PUSH2 0x10E JUMP JUMPDEST CALLVALUE DUP1 ISZERO PUSH2 0x180 JUMPI PUSH1 0x0 DUP1 REVERT JUMPDEST POP PUSH2 0x1AA PUSH2 0x18F CALLDATASIZE PUSH1 0x4 PUSH2 0x6BE JUMP JUMPDEST PUSH1 0x2 PUSH1 0x20 MSTORE PUSH1 0x0 SWAP1 DUP2 MSTORE PUSH1 0x40 SWAP1 KECCAK256 SLOAD PUSH1 0x1 PUSH1 0x1 PUSH1 0xA0 SHL SUB AND DUP2 JUMP JUMPDEST PUSH1 0x40 MLOAD PUSH1 0x1 PUSH1 0x1 PUSH1 0xA0 SHL SUB SWAP1 SWAP2 AND DUP2 MSTORE PUSH1 0x20 ADD PUSH2 0x10E JUMP JUMPDEST CALLVALUE DUP1 ISZERO PUSH2 0x1CE JUMPI PUSH1 0x0 DUP1 REVERT JUMPDEST POP PUSH2 0x137 PUSH2 0x3BC JUMP JUMPDEST CALLVALUE DUP1 ISZERO PUSH2 0x1E3 JUMPI PUSH1 0x0 DUP1 REVERT JUMPDEST POP PUSH2 0x137 PUSH2 0x1F2 CALLDATASIZE PUSH1 0x4 PUSH2 0x720 JUMP JUMPDEST PUSH2 0x3D0 JUMP JUMPDEST CALLVALUE DUP1 ISZERO PUSH2 0x203 JUMPI PUSH1 0x0 DUP1 REVERT JUMPDEST POP PUSH2 0x166 PUSH2 0x212 CALLDATASIZE PUSH1 0x4 PUSH2 0x6BE JUMP JUMPDEST PUSH2 0x407 JUMP JUMPDEST CALLVALUE DUP1 ISZERO PUSH2 0x223 JUMPI PUSH1 0x0 DUP1 REVERT JUMPDEST POP PUSH2 0x137 PUSH2 0x45B JUMP JUMPDEST CALLVALUE DUP1 ISZERO PUSH2 0x238 JUMPI PUSH1 0x0 DUP1 REVERT JUMPDEST POP PUSH1 0x0 SLOAD PUSH1 0x1 PUSH1 0x1 PUSH1 0xA0 SHL SUB AND PUSH2 0x1AA JUMP JUMPDEST PUSH2 0x137 PUSH2 0x258 CALLDATASIZE PUSH1 0x4 PUSH2 0x7A9 JUMP JUMPDEST PUSH2 0x496 JUMP JUMPDEST CALLVALUE DUP1 ISZERO PUSH2 0x269 JUMPI PUSH1 0x0 DUP1 REVERT JUMPDEST POP PUSH1 0x40 DUP1 MLOAD DUP1 DUP3 ADD DUP3 MSTORE PUSH1 0x17 DUP2 MSTORE PUSH32 0x4D6F636B4469616D6F6E6420697320776F726B696E6721000000000000000000 PUSH1 0x20 DUP3 ADD MSTORE SWAP1 MLOAD PUSH2 0x10E SWAP2 SWAP1 PUSH2 0x840 JUMP JUMPDEST CALLVALUE DUP1 ISZERO PUSH2 0x2B5 JUMPI PUSH1 0x0 DUP1 REVERT JUMPDEST POP PUSH2 0x2E3 PUSH2 0x2C4 CALLDATASIZE PUSH1 0x4 PUSH2 0x6BE JUMP JUMPDEST PUSH1 0x0 SWAP1 DUP2 MSTORE PUSH1 0x4 PUSH1 0x20 SWAP1 DUP2 MSTORE PUSH1 0x40 DUP1 DUP4 KECCAK256 SLOAD PUSH1 0x5 SWAP1 SWAP3 MSTORE SWAP1 SWAP2 KECCAK256 SLOAD SWAP1 SWAP2 JUMP JUMPDEST PUSH1 0x40 DUP1 MLOAD SWAP3 DUP4 MSTORE PUSH1 0x20 DUP4 ADD SWAP2 SWAP1 SWAP2 MSTORE ADD PUSH2 0x10E JUMP JUMPDEST CALLVALUE DUP1 ISZERO PUSH2 0x304 JUMPI PUSH1 0x0 DUP1 REVERT JUMPDEST POP PUSH2 0x166 PUSH2 0x313 CALLDATASIZE PUSH1 0x4 PUSH2 0x6BE JUMP JUMPDEST PUSH1 0x5 PUSH1 0x20 MSTORE PUSH1 0x0 SWAP1 DUP2 MSTORE PUSH1 0x40 SWAP1 KECCAK256 SLOAD DUP2 JUMP JUMPDEST CALLVALUE DUP1 ISZERO PUSH2 0x331 JUMPI PUSH1 0x0 DUP1 REVERT JUMPDEST POP PUSH2 0x1AA PUSH2 0x340 CALLDATASIZE PUSH1 0x4 PUSH2 0x6BE JUMP JUMPDEST PUSH1 0x3 PUSH1 0x20 MSTORE PUSH1 0x0 SWAP1 DUP2 MSTORE PUSH1 0x40 SWAP1 KECCAK256 SLOAD PUSH1 0x1 PUSH1 0x1 PUSH1 0xA0 SHL SUB AND DUP2 JUMP JUMPDEST CALLVALUE DUP1 ISZERO PUSH2 0x367 JUMPI PUSH1 0x0 DUP1 REVERT JUMPDEST POP PUSH2 0x137 PUSH2 0x376 CALLDATASIZE PUSH1 0x4 PUSH2 0x69C JUMP JUMPDEST PUSH2 0x5C0 JUMP JUMPDEST PUSH2 0x383 PUSH2 0x603 JUMP JUMPDEST PUSH1 0x40 MLOAD PUSH1 0x1 PUSH1 0x1 PUSH1 0xA0 SHL SUB DUP3 AND SWAP1 PUSH1 0x0 SWAP1 PUSH32 0xCEFAF961C5013063CF501FFD9F9382E9B9C4B15741AD032FE93D7E9C7C733B22 SWAP1 DUP3 SWAP1 LOG3 POP JUMP JUMPDEST PUSH2 0x3C4 PUSH2 0x603 JUMP JUMPDEST PUSH2 0x3CE PUSH1 0x0 PUSH2 0x630 JUMP JUMPDEST JUMP JUMPDEST PUSH1 0x40 MLOAD CALLER SWAP1 PUSH1 0x1 SWAP1 PUSH32 0xCEFAF961C5013063CF501FFD9F9382E9B9C4B15741AD032FE93D7E9C7C733B22 SWAP1 PUSH1 0x0 SWAP1 LOG3 POP POP POP POP POP POP POP JUMP JUMPDEST PUSH1 0x0 DUP2 DUP2 MSTORE PUSH1 0x4 PUSH1 0x20 MSTORE PUSH1 0x40 DUP2 KECCAK256 SLOAD DUP2 SUB PUSH2 0x424 JUMPI POP PUSH1 0x0 SWAP2 SWAP1 POP JUMP JUMPDEST PUSH1 0x0 DUP3 DUP2 MSTORE PUSH1 0x4 PUSH1 0x20 SWAP1 DUP2 MSTORE PUSH1 0x40 DUP1 DUP4 KECCAK256 SLOAD PUSH1 0x5 SWAP1 SWAP3 MSTORE SWAP1 SWAP2 KECCAK256 SLOAD PUSH2 0x44B SWAP1 PUSH2 0x2710 PUSH2 0x8A4 JUMP JUMPDEST PUSH2 0x455 SWAP2 SWAP1 PUSH2 0x8BB JUMP JUMPDEST SWAP3 SWAP2 POP POP JUMP JUMPDEST PUSH2 0x463 PUSH2 0x603 JUMP JUMPDEST PUSH1 0x1 DUP1 SSTORE PUSH1 0x40 MLOAD CALLER SWAP1 PUSH1 0x0 SWAP1 PUSH32 0xCEFAF961C5013063CF501FFD9F9382E9B9C4B15741AD032FE93D7E9C7C733B22 SWAP1 DUP3 SWAP1 LOG3 JUMP JUMPDEST PUSH1 0xC8 PUSH1 0x20 DUP3 LT PUSH2 0x4AF JUMPI PUSH2 0x4AC DUP3 DUP5 ADD DUP5 PUSH2 0x6BE JUMP JUMPDEST SWAP1 POP JUMPDEST PUSH1 0x1 DUP1 SLOAD PUSH1 0x0 SWAP2 DUP3 PUSH2 0x4C0 DUP4 PUSH2 0x8DD JUMP JUMPDEST SWAP1 SWAP2 SSTORE POP PUSH1 0x0 DUP2 DUP2 MSTORE PUSH1 0x2 PUSH1 0x20 SWAP1 DUP2 MSTORE PUSH1 0x40 SWAP1 SWAP2 KECCAK256 DUP1 SLOAD PUSH1 0x1 PUSH1 0x1 PUSH1 0xA0 SHL SUB NOT AND CALLER OR SWAP1 SSTORE SWAP1 SWAP2 POP PUSH2 0x4F4 SWAP1 DUP10 ADD DUP10 PUSH2 0x69C JUMP JUMPDEST PUSH1 0x0 DUP3 DUP2 MSTORE PUSH1 0x3 PUSH1 0x20 SWAP1 DUP2 MSTORE PUSH1 0x40 DUP1 DUP4 KECCAK256 DUP1 SLOAD PUSH1 0x1 PUSH1 0x1 PUSH1 0xA0 SHL SUB NOT AND PUSH1 0x1 PUSH1 0x1 PUSH1 0xA0 SHL SUB SWAP6 SWAP1 SWAP6 AND SWAP5 SWAP1 SWAP5 OR SWAP1 SWAP4 SSTORE PUSH1 0x4 DUP2 MSTORE SWAP2 SWAP1 KECCAK256 SWAP1 DUP10 ADD CALLDATALOAD SWAP1 DUP2 SWAP1 SSTORE PUSH1 0x64 SWAP1 PUSH2 0x541 SWAP1 DUP5 SWAP1 PUSH2 0x8A4 JUMP JUMPDEST PUSH2 0x54B SWAP2 SWAP1 PUSH2 0x8BB JUMP JUMPDEST PUSH1 0x0 DUP3 DUP2 MSTORE PUSH1 0x5 PUSH1 0x20 SWAP1 DUP2 MSTORE PUSH1 0x40 SWAP1 SWAP2 KECCAK256 SWAP2 SWAP1 SWAP2 SSTORE CALLER SWAP1 DUP3 SWAP1 PUSH32 0x9931FC1A74664316F768453232CD4F17F63C060FF3C43C99E92C83814879817A SWAP1 PUSH2 0x592 SWAP1 DUP13 ADD DUP13 PUSH2 0x69C JUMP JUMPDEST PUSH1 0x40 DUP1 MLOAD PUSH1 0x1 PUSH1 0x1 PUSH1 0xA0 SHL SUB SWAP1 SWAP3 AND DUP3 MSTORE PUSH1 0x20 DUP1 DUP15 ADD CALLDATALOAD SWAP1 DUP4 ADD MSTORE ADD PUSH1 0x40 MLOAD DUP1 SWAP2 SUB SWAP1 LOG3 POP POP POP POP POP POP POP POP JUMP JUMPDEST PUSH2 0x5C8 PUSH2 0x603 JUMP JUMPDEST PUSH1 0x1 PUSH1 0x1 PUSH1 0xA0 SHL SUB DUP2 AND PUSH2 0x5F7 JUMPI PUSH1 0x40 MLOAD PUSH4 0x1E4FBDF7 PUSH1 0xE0 SHL DUP2 MSTORE PUSH1 0x0 PUSH1 0x4 DUP3 ADD MSTORE PUSH1 0x24 ADD JUMPDEST PUSH1 0x40 MLOAD DUP1 SWAP2 SUB SWAP1 REVERT JUMPDEST PUSH2 0x600 DUP2 PUSH2 0x630 JUMP JUMPDEST POP JUMP JUMPDEST PUSH1 0x0 SLOAD PUSH1 0x1 PUSH1 0x1 PUSH1 0xA0 SHL SUB AND CALLER EQ PUSH2 0x3CE JUMPI PUSH1 0x40 MLOAD PUSH4 0x118CDAA7 PUSH1 0xE0 SHL DUP2 MSTORE CALLER PUSH1 0x4 DUP3 ADD MSTORE PUSH1 0x24 ADD PUSH2 0x5EE JUMP JUMPDEST PUSH1 0x0 DUP1 SLOAD PUSH1 0x1 PUSH1 0x1 PUSH1 0xA0 SHL SUB DUP4 DUP2 AND PUSH1 0x1 PUSH1 0x1 PUSH1 0xA0 SHL SUB NOT DUP4 AND DUP2 OR DUP5 SSTORE PUSH1 0x40 MLOAD SWAP2 SWAP1 SWAP3 AND SWAP3 DUP4 SWAP2 PUSH32 0x8BE0079C531659141344CD1FD0A4F28419497F9722A3DAAFE3B4186F6B6457E0 SWAP2 SWAP1 LOG3 POP POP JUMP JUMPDEST DUP1 CALLDATALOAD PUSH1 0x1 PUSH1 0x1 PUSH1 0xA0 SHL SUB DUP2 AND DUP2 EQ PUSH2 0x697 JUMPI PUSH1 0x0 DUP1 REVERT JUMPDEST SWAP2 SWAP1 POP JUMP JUMPDEST PUSH1 0x0 PUSH1 0x20 DUP3 DUP5 SUB SLT ISZERO PUSH2 0x6AE JUMPI PUSH1 0x0 DUP1 REVERT JUMPDEST PUSH2 0x6B7 DUP3 PUSH2 0x680 JUMP JUMPDEST SWAP4 SWAP3 POP POP POP JUMP JUMPDEST PUSH1 0x0 PUSH1 0x20 DUP3 DUP5 SUB SLT ISZERO PUSH2 0x6D0 JUMPI PUSH1 0x0 DUP1 REVERT JUMPDEST POP CALLDATALOAD SWAP2 SWAP1 POP JUMP JUMPDEST PUSH1 0x0 DUP1 DUP4 PUSH1 0x1F DUP5 ADD SLT PUSH2 0x6E9 JUMPI PUSH1 0x0 DUP1 REVERT JUMPDEST POP DUP2 CALLDATALOAD PUSH8 0xFFFFFFFFFFFFFFFF DUP2 GT ISZERO PUSH2 0x701 JUMPI PUSH1 0x0 DUP1 REVERT JUMPDEST PUSH1 0x20 DUP4 ADD SWAP2 POP DUP4 PUSH1 0x20 DUP3 DUP6 ADD ADD GT ISZERO PUSH2 0x719 JUMPI PUSH1 0x0 DUP1 REVERT JUMPDEST SWAP3 POP SWAP3 SWAP1 POP JUMP JUMPDEST PUSH1 0x0 DUP1 PUSH1 0x0 DUP1 PUSH1 0x0 DUP1 PUSH1 0x0 PUSH1 0xC0 DUP9 DUP11 SUB SLT ISZERO PUSH2 0x73B JUMPI PUSH1 0x0 DUP1 REVERT JUMPDEST PUSH2 0x744 DUP9 PUSH2 0x680 JUMP JUMPDEST SWAP7 POP PUSH1 0x20 DUP9 ADD CALLDATALOAD SWAP6 POP PUSH2 0x759 PUSH1 0x40 DUP10 ADD PUSH2 0x680 JUMP JUMPDEST SWAP5 POP PUSH1 0x60 DUP9 ADD CALLDATALOAD SWAP4 POP PUSH2 0x76E PUSH1 0x80 DUP10 ADD PUSH2 0x680 JUMP JUMPDEST SWAP3 POP PUSH1 0xA0 DUP9 ADD CALLDATALOAD PUSH8 0xFFFFFFFFFFFFFFFF DUP2 GT ISZERO PUSH2 0x78A JUMPI PUSH1 0x0 DUP1 REVERT JUMPDEST PUSH2 0x796 DUP11 DUP3 DUP12 ADD PUSH2 0x6D7 JUMP JUMPDEST SWAP9 SWAP12 SWAP8 SWAP11 POP SWAP6 SWAP9 POP SWAP4 SWAP7 SWAP3 SWAP6 SWAP3 SWAP4 POP POP POP JUMP JUMPDEST PUSH1 0x0 DUP1 PUSH1 0x0 DUP1 PUSH1 0x0 DUP1 PUSH1 0xA0 DUP8 DUP10 SUB SLT ISZERO PUSH2 0x7C2 JUMPI PUSH1 0x0 DUP1 REVERT JUMPDEST DUP7 CALLDATALOAD PUSH8 0xFFFFFFFFFFFFFFFF DUP1 DUP3 GT ISZERO PUSH2 0x7DA JUMPI PUSH1 0x0 DUP1 REVERT JUMPDEST SWAP1 DUP9 ADD SWAP1 PUSH1 0x80 DUP3 DUP12 SUB SLT ISZERO PUSH2 0x7EE JUMPI PUSH1 0x0 DUP1 REVERT JUMPDEST DUP2 SWAP8 POP PUSH2 0x7FD PUSH1 0x20 DUP11 ADD PUSH2 0x680 JUMP JUMPDEST SWAP7 POP PUSH1 0x40 DUP10 ADD CALLDATALOAD SWAP6 POP PUSH1 0x60 DUP10 ADD CALLDATALOAD SWAP5 POP PUSH1 0x80 DUP10 ADD CALLDATALOAD SWAP2 POP DUP1 DUP3 GT ISZERO PUSH2 0x821 JUMPI PUSH1 0x0 DUP1 REVERT JUMPDEST POP PUSH2 0x82E DUP10 DUP3 DUP11 ADD PUSH2 0x6D7 JUMP JUMPDEST SWAP8 SWAP11 SWAP7 SWAP10 POP SWAP5 SWAP8 POP SWAP3 SWAP6 SWAP4 SWAP5 SWAP3 POP POP POP JUMP JUMPDEST PUSH1 0x0 PUSH1 0x20 DUP1 DUP4 MSTORE DUP4 MLOAD DUP1 DUP3 DUP6 ADD MSTORE PUSH1 0x0 JUMPDEST DUP2 DUP2 LT ISZERO PUSH2 0x86D JUMPI DUP6 DUP2 ADD DUP4 ADD MLOAD DUP6 DUP3 ADD PUSH1 0x40 ADD MSTORE DUP3 ADD PUSH2 0x851 JUMP JUMPDEST POP PUSH1 0x0 PUSH1 0x40 DUP3 DUP7 ADD ADD MSTORE PUSH1 0x40 PUSH1 0x1F NOT PUSH1 0x1F DUP4 ADD AND DUP6 ADD ADD SWAP3 POP POP POP SWAP3 SWAP2 POP POP JUMP JUMPDEST PUSH4 0x4E487B71 PUSH1 0xE0 SHL PUSH1 0x0 MSTORE PUSH1 0x11 PUSH1 0x4 MSTORE PUSH1 0x24 PUSH1 0x0 REVERT JUMPDEST DUP1 DUP3 MUL DUP2 ISZERO DUP3 DUP3 DIV DUP5 EQ OR PUSH2 0x455 JUMPI PUSH2 0x455 PUSH2 0x88E JUMP JUMPDEST PUSH1 0x0 DUP3 PUSH2 0x8D8 JUMPI PUSH4 0x4E487B71 PUSH1 0xE0 SHL PUSH1 0x0 MSTORE PUSH1 0x12 PUSH1 0x4 MSTORE PUSH1 0x24 PUSH1 0x0 REVERT JUMPDEST POP DIV SWAP1 JUMP JUMPDEST PUSH1 0x0 PUSH1 0x1 DUP3 ADD PUSH2 0x8EF JUMPI PUSH2 0x8EF PUSH2 0x88E JUMP JUMPDEST POP PUSH1 0x1 ADD SWAP1 JUMP INVALID LOG2 PUSH5 0x6970667358 0x22 SLT KECCAK256 SWAP6 0x1E PUSH21 0xE0A268A62843BF091F1F7D6D2537F9A18AC7BDCEC2 0x2C 0xFB 0xE0 ISZERO GAS 0xD8 LOG2 0xF8 PUSH5 0x736F6C6343 STOP ADDMOD EQ STOP CALLER "},"methodIdentifiers":{"clearAllPositions()":"8868af74","clearUserPositions(address)":"094b5ccd","closeOrRemovePositionFlashLoanV2(address,uint256,address,uint256,address,bytes)":"8543795c","getNextPositionId()":"067f4ddd","getPosition(uint256)":"eb02c301","getPositionDebtRatio(uint256)":"861b4cfe","openOrAddPositionFlashLoanV2((address,uint256,address,bytes),address,uint256,uint256,bytes)":"a1b7e04f","owner()":"8da5cb5b","positionCollateralAmounts(uint256)":"2fc027d0","positionCollateralTokens(uint256)":"f03c71f7","positionDebtAmounts(uint256)":"f00ba564","positionOwners(uint256)":"62474ea1","renounceOwnership()":"715018a6","testFunction()":"e16b4a9b","transferOwnership(address)":"f2fde38b"}}}}}