{
  "_format": "hh-sol-artifact-1",
  "contractName": "MockDiamond",
  "sourceName": "contracts/MockDiamond.sol",
  "abi": [
    {
      "inputs": [],
      "stateMutability": "nonpayable",
      "type": "constructor"
    },
    {
      "inputs": [
        {
          "internalType": "address",
          "name": "owner",
          "type": "address"
        }
      ],
      "name": "OwnableInvalidOwner",
      "type": "error"
    },
    {
      "inputs": [
        {
          "internalType": "address",
          "name": "account",
          "type": "address"
        }
      ],
      "name": "OwnableUnauthorizedAccount",
      "type": "error"
    },
    {
      "anonymous": false,
      "inputs": [
        {
          "indexed": true,
          "internalType": "address",
          "name": "previousOwner",
          "type": "address"
        },
        {
          "indexed": true,
          "internalType": "address",
          "name": "newOwner",
          "type": "address"
        }
      ],
      "name": "OwnershipTransferred",
      "type": "event"
    },
    {
      "anonymous": false,
      "inputs": [
        {
          "indexed": true,
          "internalType": "uint256",
          "name": "tokenId",
          "type": "uint256"
        },
        {
          "indexed": true,
          "internalType": "address",
          "name": "owner",
          "type": "address"
        }
      ],
      "name": "PositionClosed",
      "type": "event"
    },
    {
      "anonymous": false,
      "inputs": [
        {
          "indexed": true,
          "internalType": "uint256",
          "name": "tokenId",
          "type": "uint256"
        },
        {
          "indexed": true,
          "internalType": "address",
          "name": "owner",
          "type": "address"
        },
        {
          "indexed": false,
          "internalType": "address",
          "name": "collateralToken",
          "type": "address"
        },
        {
          "indexed": false,
          "internalType": "uint256",
          "name": "collateralAmount",
          "type": "uint256"
        }
      ],
      "name": "PositionOpened",
      "type": "event"
    },
    {
      "inputs": [
        {
          "internalType": "address",
          "name": "tokenIn",
          "type": "address"
        },
        {
          "internalType": "uint256",
          "name": "amountIn",
          "type": "uint256"
        },
        {
          "internalType": "address",
          "name": "tokenOut",
          "type": "address"
        },
        {
          "internalType": "uint256",
          "name": "minAmountOut",
          "type": "uint256"
        },
        {
          "internalType": "address",
          "name": "swapTarget",
          "type": "address"
        },
        {
          "internalType": "bytes",
          "name": "swapData",
          "type": "bytes"
        }
      ],
      "name": "closeOrRemovePositionFlashLoanV2",
      "outputs": [],
      "stateMutability": "nonpayable",
      "type": "function"
    },
    {
      "inputs": [],
      "name": "getNextPositionId",
      "outputs": [
        {
          "internalType": "uint32",
          "name": "",
          "type": "uint32"
        }
      ],
      "stateMutability": "view",
      "type": "function"
    },
    {
      "inputs": [
        {
          "internalType": "uint256",
          "name": "tokenId",
          "type": "uint256"
        }
      ],
      "name": "getPosition",
      "outputs": [
        {
          "internalType": "uint256",
          "name": "collateralAmount",
          "type": "uint256"
        },
        {
          "internalType": "uint256",
          "name": "debtAmount",
          "type": "uint256"
        }
      ],
      "stateMutability": "view",
      "type": "function"
    },
    {
      "inputs": [
        {
          "internalType": "uint256",
          "name": "tokenId",
          "type": "uint256"
        }
      ],
      "name": "getPositionDebtRatio",
      "outputs": [
        {
          "internalType": "uint256",
          "name": "",
          "type": "uint256"
        }
      ],
      "stateMutability": "view",
      "type": "function"
    },
    {
      "inputs": [
        {
          "internalType": "address",
          "name": "tokenIn",
          "type": "address"
        },
        {
          "internalType": "uint256",
          "name": "amountIn",
          "type": "uint256"
        },
        {
          "internalType": "address",
          "name": "tokenOut",
          "type": "address"
        },
        {
          "internalType": "bytes",
          "name": "swapData",
          "type": "bytes"
        },
        {
          "internalType": "address",
          "name": "pool",
          "type": "address"
        },
        {
          "internalType": "uint256",
          "name": "positionId",
          "type": "uint256"
        },
        {
          "internalType": "uint256",
          "name": "amount",
          "type": "uint256"
        },
        {
          "internalType": "bytes",
          "name": "data",
          "type": "bytes"
        }
      ],
      "name": "openOrAddPositionFlashLoanV2",
      "outputs": [],
      "stateMutability": "payable",
      "type": "function"
    },
    {
      "inputs": [],
      "name": "owner",
      "outputs": [
        {
          "internalType": "address",
          "name": "",
          "type": "address"
        }
      ],
      "stateMutability": "view",
      "type": "function"
    },
    {
      "inputs": [
        {
          "internalType": "uint256",
          "name": "",
          "type": "uint256"
        }
      ],
      "name": "positionCollateralAmounts",
      "outputs": [
        {
          "internalType": "uint256",
          "name": "",
          "type": "uint256"
        }
      ],
      "stateMutability": "view",
      "type": "function"
    },
    {
      "inputs": [
        {
          "internalType": "uint256",
          "name": "",
          "type": "uint256"
        }
      ],
      "name": "positionCollateralTokens",
      "outputs": [
        {
          "internalType": "address",
          "name": "",
          "type": "address"
        }
      ],
      "stateMutability": "view",
      "type": "function"
    },
    {
      "inputs": [
        {
          "internalType": "uint256",
          "name": "",
          "type": "uint256"
        }
      ],
      "name": "positionDebtAmounts",
      "outputs": [
        {
          "internalType": "uint256",
          "name": "",
          "type": "uint256"
        }
      ],
      "stateMutability": "view",
      "type": "function"
    },
    {
      "inputs": [
        {
          "internalType": "uint256",
          "name": "",
          "type": "uint256"
        }
      ],
      "name": "positionOwners",
      "outputs": [
        {
          "internalType": "address",
          "name": "",
          "type": "address"
        }
      ],
      "stateMutability": "view",
      "type": "function"
    },
    {
      "inputs": [],
      "name": "renounceOwnership",
      "outputs": [],
      "stateMutability": "nonpayable",
      "type": "function"
    },
    {
      "inputs": [
        {
          "internalType": "address",
          "name": "newOwner",
          "type": "address"
        }
      ],
      "name": "transferOwnership",
      "outputs": [],
      "stateMutability": "nonpayable",
      "type": "function"
    }
  ],
  "bytecode": "0x60806040526001805534801561001457600080fd5b50338061003b57604051631e4fbdf760e01b81526000600482015260240160405180910390fd5b6100448161004a565b5061009a565b600080546001600160a01b038381166001600160a01b0319831681178455604051919092169283917f8be0079c531659141344cd1fd0a4f28419497f9722a3daafe3b4186f6b6457e09190a35050565b6107b6806100a96000396000f3fe6080604052600436106100a75760003560e01c8063861b4cfe11610064578063861b4cfe146101a95780638da5cb5b146101c9578063eb02c301146101e7578063f00ba56414610236578063f03c71f714610263578063f2fde38b1461029957600080fd5b806303eed971146100ac578063067f4ddd146100c15780632fc027d0146100eb57806362474ea114610126578063715018a6146101745780638543795c14610189575b600080fd5b6100bf6100ba36600461058f565b6102b9565b005b3480156100cd57600080fd5b5060015460405163ffffffff90911681526020015b60405180910390f35b3480156100f757600080fd5b50610118610106366004610654565b60046020526000908152604090205481565b6040519081526020016100e2565b34801561013257600080fd5b5061015c610141366004610654565b6002602052600090815260409020546001600160a01b031681565b6040516001600160a01b0390911681526020016100e2565b34801561018057600080fd5b506100bf6103cb565b34801561019557600080fd5b506100bf6101a436600461066d565b6103df565b3480156101b557600080fd5b506101186101c4366004610654565b610416565b3480156101d557600080fd5b506000546001600160a01b031661015c565b3480156101f357600080fd5b50610221610202366004610654565b6000908152600460209081526040808320546005909252909120549091565b604080519283526020830191909152016100e2565b34801561024257600080fd5b50610118610251366004610654565b60056020526000908152604090205481565b34801561026f57600080fd5b5061015c61027e366004610654565b6003602052600090815260409020546001600160a01b031681565b3480156102a557600080fd5b506100bf6102b43660046106f6565b61046a565b60018054600091826102ca8361072e565b919050559050336002600083815260200190815260200160002060006101000a8154816001600160a01b0302191690836001600160a01b031602179055508a6003600083815260200190815260200160002060006101000a8154816001600160a01b0302191690836001600160a01b031602179055508960046000838152602001908152602001600020819055508960026103659190610747565b6000828152600560209081526040918290209290925580516001600160a01b038e1681529182018c9052339183917f9931fc1a74664316f768453232cd4f17f63c060ff3c43c99e92c83814879817a910160405180910390a35050505050505050505050565b6103d36104ad565b6103dd60006104da565b565b60405133906001907fcefaf961c5013063cf501ffd9f9382e9b9c4b15741ad032fe93d7e9c7c733b2290600090a350505050505050565b600081815260046020526040812054810361043357506000919050565b60008281526004602090815260408083205460059092529091205461045a90612710610747565b610464919061075e565b92915050565b6104726104ad565b6001600160a01b0381166104a157604051631e4fbdf760e01b8152600060048201526024015b60405180910390fd5b6104aa816104da565b50565b6000546001600160a01b031633146103dd5760405163118cdaa760e01b8152336004820152602401610498565b600080546001600160a01b038381166001600160a01b0319831681178455604051919092169283917f8be0079c531659141344cd1fd0a4f28419497f9722a3daafe3b4186f6b6457e09190a35050565b80356001600160a01b038116811461054157600080fd5b919050565b60008083601f84011261055857600080fd5b50813567ffffffffffffffff81111561057057600080fd5b60208301915083602082850101111561058857600080fd5b9250929050565b6000806000806000806000806000806101008b8d0312156105af57600080fd5b6105b88b61052a565b995060208b013598506105cd60408c0161052a565b975060608b013567ffffffffffffffff808211156105ea57600080fd5b6105f68e838f01610546565b909950975087915061060a60808e0161052a565b965060a08d0135955060c08d0135945060e08d013591508082111561062e57600080fd5b5061063b8d828e01610546565b915080935050809150509295989b9194979a5092959850565b60006020828403121561066657600080fd5b5035919050565b600080600080600080600060c0888a03121561068857600080fd5b6106918861052a565b9650602088013595506106a66040890161052a565b9450606088013593506106bb6080890161052a565b925060a088013567ffffffffffffffff8111156106d757600080fd5b6106e38a828b01610546565b989b979a50959850939692959293505050565b60006020828403121561070857600080fd5b6107118261052a565b9392505050565b634e487b7160e01b600052601160045260246000fd5b60006001820161074057610740610718565b5060010190565b808202811582820484141761046457610464610718565b60008261077b57634e487b7160e01b600052601260045260246000fd5b50049056fea2646970667358221220be4ef8172c5530da3f0b43b52b98c84d4c8fd5bdffc296d4671a2ade6ba6ae7e64736f6c63430008140033",
  "linkReferences": {},
  "deployedLinkReferences": {}
}