{
  "_format": "hh-sol-artifact-1",
  "contractName": "MockDiamond",
  "sourceName": "contracts/MockDiamond.sol",
  "abi": [
    {
      "inputs": [],
      "stateMutability": "nonpayable",
      "type": "constructor"
    },
    {
      "inputs": [
        {
          "internalType": "address",
          "name": "owner",
          "type": "address"
        }
      ],
      "name": "OwnableInvalidOwner",
      "type": "error"
    },
    {
      "inputs": [
        {
          "internalType": "address",
          "name": "account",
          "type": "address"
        }
      ],
      "name": "OwnableUnauthorizedAccount",
      "type": "error"
    },
    {
      "anonymous": false,
      "inputs": [
        {
          "indexed": true,
          "internalType": "address",
          "name": "previousOwner",
          "type": "address"
        },
        {
          "indexed": true,
          "internalType": "address",
          "name": "newOwner",
          "type": "address"
        }
      ],
      "name": "OwnershipTransferred",
      "type": "event"
    },
    {
      "anonymous": false,
      "inputs": [
        {
          "indexed": true,
          "internalType": "uint256",
          "name": "tokenId",
          "type": "uint256"
        },
        {
          "indexed": true,
          "internalType": "address",
          "name": "owner",
          "type": "address"
        }
      ],
      "name": "PositionClosed",
      "type": "event"
    },
    {
      "anonymous": false,
      "inputs": [
        {
          "indexed": true,
          "internalType": "uint256",
          "name": "tokenId",
          "type": "uint256"
        },
        {
          "indexed": true,
          "internalType": "address",
          "name": "owner",
          "type": "address"
        },
        {
          "indexed": false,
          "internalType": "address",
          "name": "collateralToken",
          "type": "address"
        },
        {
          "indexed": false,
          "internalType": "uint256",
          "name": "collateralAmount",
          "type": "uint256"
        }
      ],
      "name": "PositionOpened",
      "type": "event"
    },
    {
      "inputs": [],
      "name": "clearAllPositions",
      "outputs": [],
      "stateMutability": "nonpayable",
      "type": "function"
    },
    {
      "inputs": [
        {
          "internalType": "address",
          "name": "user",
          "type": "address"
        }
      ],
      "name": "clearUserPositions",
      "outputs": [],
      "stateMutability": "nonpayable",
      "type": "function"
    },
    {
      "inputs": [
        {
          "internalType": "address",
          "name": "tokenIn",
          "type": "address"
        },
        {
          "internalType": "uint256",
          "name": "amountIn",
          "type": "uint256"
        },
        {
          "internalType": "address",
          "name": "tokenOut",
          "type": "address"
        },
        {
          "internalType": "uint256",
          "name": "minAmountOut",
          "type": "uint256"
        },
        {
          "internalType": "address",
          "name": "swapTarget",
          "type": "address"
        },
        {
          "internalType": "bytes",
          "name": "swapData",
          "type": "bytes"
        }
      ],
      "name": "closeOrRemovePositionFlashLoanV2",
      "outputs": [],
      "stateMutability": "nonpayable",
      "type": "function"
    },
    {
      "inputs": [],
      "name": "getNextPositionId",
      "outputs": [
        {
          "internalType": "uint32",
          "name": "",
          "type": "uint32"
        }
      ],
      "stateMutability": "view",
      "type": "function"
    },
    {
      "inputs": [
        {
          "internalType": "uint256",
          "name": "tokenId",
          "type": "uint256"
        }
      ],
      "name": "getPosition",
      "outputs": [
        {
          "internalType": "uint256",
          "name": "collateralAmount",
          "type": "uint256"
        },
        {
          "internalType": "uint256",
          "name": "debtAmount",
          "type": "uint256"
        }
      ],
      "stateMutability": "view",
      "type": "function"
    },
    {
      "inputs": [
        {
          "internalType": "uint256",
          "name": "tokenId",
          "type": "uint256"
        }
      ],
      "name": "getPositionDebtRatio",
      "outputs": [
        {
          "internalType": "uint256",
          "name": "",
          "type": "uint256"
        }
      ],
      "stateMutability": "view",
      "type": "function"
    },
    {
      "inputs": [
        {
          "components": [
            {
              "internalType": "address",
              "name": "tokenIn",
              "type": "address"
            },
            {
              "internalType": "uint256",
              "name": "amountIn",
              "type": "uint256"
            },
            {
              "internalType": "address",
              "name": "tokenOut",
              "type": "address"
            },
            {
              "internalType": "bytes",
              "name": "swapData",
              "type": "bytes"
            }
          ],
          "internalType": "struct MockDiamond.SwapParams",
          "name": "swapParams",
          "type": "tuple"
        },
        {
          "internalType": "address",
          "name": "pool",
          "type": "address"
        },
        {
          "internalType": "uint256",
          "name": "positionId",
          "type": "uint256"
        },
        {
          "internalType": "uint256",
          "name": "amount",
          "type": "uint256"
        },
        {
          "internalType": "bytes",
          "name": "data",
          "type": "bytes"
        }
      ],
      "name": "openOrAddPositionFlashLoanV2",
      "outputs": [],
      "stateMutability": "payable",
      "type": "function"
    },
    {
      "inputs": [],
      "name": "owner",
      "outputs": [
        {
          "internalType": "address",
          "name": "",
          "type": "address"
        }
      ],
      "stateMutability": "view",
      "type": "function"
    },
    {
      "inputs": [
        {
          "internalType": "uint256",
          "name": "",
          "type": "uint256"
        }
      ],
      "name": "positionCollateralAmounts",
      "outputs": [
        {
          "internalType": "uint256",
          "name": "",
          "type": "uint256"
        }
      ],
      "stateMutability": "view",
      "type": "function"
    },
    {
      "inputs": [
        {
          "internalType": "uint256",
          "name": "",
          "type": "uint256"
        }
      ],
      "name": "positionCollateralTokens",
      "outputs": [
        {
          "internalType": "address",
          "name": "",
          "type": "address"
        }
      ],
      "stateMutability": "view",
      "type": "function"
    },
    {
      "inputs": [
        {
          "internalType": "uint256",
          "name": "",
          "type": "uint256"
        }
      ],
      "name": "positionDebtAmounts",
      "outputs": [
        {
          "internalType": "uint256",
          "name": "",
          "type": "uint256"
        }
      ],
      "stateMutability": "view",
      "type": "function"
    },
    {
      "inputs": [
        {
          "internalType": "uint256",
          "name": "",
          "type": "uint256"
        }
      ],
      "name": "positionOwners",
      "outputs": [
        {
          "internalType": "address",
          "name": "",
          "type": "address"
        }
      ],
      "stateMutability": "view",
      "type": "function"
    },
    {
      "inputs": [],
      "name": "renounceOwnership",
      "outputs": [],
      "stateMutability": "nonpayable",
      "type": "function"
    },
    {
      "inputs": [],
      "name": "testFunction",
      "outputs": [
        {
          "internalType": "string",
          "name": "",
          "type": "string"
        }
      ],
      "stateMutability": "pure",
      "type": "function"
    },
    {
      "inputs": [
        {
          "internalType": "address",
          "name": "newOwner",
          "type": "address"
        }
      ],
      "name": "transferOwnership",
      "outputs": [],
      "stateMutability": "nonpayable",
      "type": "function"
    }
  ],
  "bytecode": "0x60806040526001805534801561001457600080fd5b50338061003b57604051631e4fbdf760e01b81526000600482015260240160405180910390fd5b6100448161004a565b5061009a565b600080546001600160a01b038381166001600160a01b0319831681178455604051919092169283917f8be0079c531659141344cd1fd0a4f28419497f9722a3daafe3b4186f6b6457e09190a35050565b61092c806100a96000396000f3fe6080604052600436106100e85760003560e01c80638868af741161008a578063eb02c30111610059578063eb02c301146102a9578063f00ba564146102f8578063f03c71f714610325578063f2fde38b1461035b57600080fd5b80638868af74146102175780638da5cb5b1461022c578063a1b7e04f1461024a578063e16b4a9b1461025d57600080fd5b806362474ea1116100c657806362474ea114610174578063715018a6146101c25780638543795c146101d7578063861b4cfe146101f757600080fd5b8063067f4ddd146100ed578063094b5ccd146101175780632fc027d014610139575b600080fd5b3480156100f957600080fd5b5060015460405163ffffffff90911681526020015b60405180910390f35b34801561012357600080fd5b5061013761013236600461069c565b61037b565b005b34801561014557600080fd5b506101666101543660046106be565b60046020526000908152604090205481565b60405190815260200161010e565b34801561018057600080fd5b506101aa61018f3660046106be565b6002602052600090815260409020546001600160a01b031681565b6040516001600160a01b03909116815260200161010e565b3480156101ce57600080fd5b506101376103bc565b3480156101e357600080fd5b506101376101f2366004610720565b6103d0565b34801561020357600080fd5b506101666102123660046106be565b610407565b34801561022357600080fd5b5061013761045b565b34801561023857600080fd5b506000546001600160a01b03166101aa565b6101376102583660046107a9565b610496565b34801561026957600080fd5b50604080518082018252601781527f4d6f636b4469616d6f6e6420697320776f726b696e67210000000000000000006020820152905161010e9190610840565b3480156102b557600080fd5b506102e36102c43660046106be565b6000908152600460209081526040808320546005909252909120549091565b6040805192835260208301919091520161010e565b34801561030457600080fd5b506101666103133660046106be565b60056020526000908152604090205481565b34801561033157600080fd5b506101aa6103403660046106be565b6003602052600090815260409020546001600160a01b031681565b34801561036757600080fd5b5061013761037636600461069c565b6105c0565b610383610603565b6040516001600160a01b038216906000907fcefaf961c5013063cf501ffd9f9382e9b9c4b15741ad032fe93d7e9c7c733b22908290a350565b6103c4610603565b6103ce6000610630565b565b60405133906001907fcefaf961c5013063cf501ffd9f9382e9b9c4b15741ad032fe93d7e9c7c733b2290600090a350505050505050565b600081815260046020526040812054810361042457506000919050565b60008281526004602090815260408083205460059092529091205461044b906127106108a4565b61045591906108bb565b92915050565b610463610603565b6001805560405133906000907fcefaf961c5013063cf501ffd9f9382e9b9c4b15741ad032fe93d7e9c7c733b22908290a3565b60c8602082106104af576104ac828401846106be565b90505b60018054600091826104c0836108dd565b90915550600081815260026020908152604090912080546001600160a01b031916331790559091506104f49089018961069c565b600082815260036020908152604080832080546001600160a01b0319166001600160a01b0395909516949094179093556004815291902090890135908190556064906105419084906108a4565b61054b91906108bb565b600082815260056020908152604090912091909155339082907f9931fc1a74664316f768453232cd4f17f63c060ff3c43c99e92c83814879817a90610592908c018c61069c565b604080516001600160a01b0390921682526020808e0135908301520160405180910390a35050505050505050565b6105c8610603565b6001600160a01b0381166105f757604051631e4fbdf760e01b8152600060048201526024015b60405180910390fd5b61060081610630565b50565b6000546001600160a01b031633146103ce5760405163118cdaa760e01b81523360048201526024016105ee565b600080546001600160a01b038381166001600160a01b0319831681178455604051919092169283917f8be0079c531659141344cd1fd0a4f28419497f9722a3daafe3b4186f6b6457e09190a35050565b80356001600160a01b038116811461069757600080fd5b919050565b6000602082840312156106ae57600080fd5b6106b782610680565b9392505050565b6000602082840312156106d057600080fd5b5035919050565b60008083601f8401126106e957600080fd5b50813567ffffffffffffffff81111561070157600080fd5b60208301915083602082850101111561071957600080fd5b9250929050565b600080600080600080600060c0888a03121561073b57600080fd5b61074488610680565b96506020880135955061075960408901610680565b94506060880135935061076e60808901610680565b925060a088013567ffffffffffffffff81111561078a57600080fd5b6107968a828b016106d7565b989b979a50959850939692959293505050565b60008060008060008060a087890312156107c257600080fd5b863567ffffffffffffffff808211156107da57600080fd5b908801906080828b0312156107ee57600080fd5b8197506107fd60208a01610680565b96506040890135955060608901359450608089013591508082111561082157600080fd5b5061082e89828a016106d7565b979a9699509497509295939492505050565b600060208083528351808285015260005b8181101561086d57858101830151858201604001528201610851565b506000604082860101526040601f19601f8301168501019250505092915050565b634e487b7160e01b600052601160045260246000fd5b80820281158282048414176104555761045561088e565b6000826108d857634e487b7160e01b600052601260045260246000fd5b500490565b6000600182016108ef576108ef61088e565b506001019056fea2646970667358221220951e74e0a268a62843bf091f1f7d6d2537f9a18ac7bdcec22cfbe0155ad8a2f864736f6c63430008140033",
  "linkReferences": {},
  "deployedLinkReferences": {}
}